:100000000C9440000C945D000C945D000C945D0019
:100010000C945D000C945D000C945D000C945D00EC
:100020000C945D000C945D000C945D000C947201C6
:100030000C945D000C945D000C945D000C945D00CC
:100040000C945D000C945D000C945D000C945D00BC
:100050000C945D000C945D000C945D000C945D00AC
:100060000C945D000C945D0031042E042B042804D4
:10007000250422041F041C0419041604130410048C
:1000800011241FBECFEFD4E0DEBFCDBF11E0A0E052
:10009000B1E0E8ECF8E002C005900D92A034B107A1
:1000A000D9F721E0A0E4B1E001C01D92A636B20765
:1000B000E1F70E945F000C9462040C9400001F930F
:1000C000CF93DF93CDB7DEB7C454D1090FB6F89400
:1000D000DEBF0FBECDBF0E943D040E94AC0280E196
:1000E000E0E0F1E0DE01D19601900D928A95E1F712
:1000F00080E1E0E1F1E0DE01919601900D928A95B8
:10010000E1F79E012F5D3F4FAE014F5C5F4F60E115
:1001100080E00E94090383E424968FAF249789E34B
:1001200025968FAF259710E122961FAF2297239631
:100130001FAF23979E012F5B3F4FAE014D5B5F4F7B
:1001400062E081E00E940903E0E2F1E0DE01519605
:10015000812F01900D928A95E1F7E0E3F1E0DE0155
:10016000119601900D921A95E1F79E012F5F3F4F76
:10017000AE014F5E5F4F60E182E00E94090320E024
:1001800040E060E08FEF0E94E00288EB9BE00E947D
:100190008C03182F0E94BF028F3A9B4024F180E00D
:1001A0000E9449030E947A034CC0111115C081E0DE
:1001B0000E94490321E041E06FEF8FEF0E94E002CF
:1001C00083EA9FEF0E94E8030E94AC0220E040E037
:1001D00060E08FEF0E94E00288EB9BE00E948C03BE
:1001E000182F882331F00E94BF02883B9B40ECF21D
:1001F00028C00E94BF02843F9140ACF782E00E9479
:10020000490321E041E06FEF80E00E94E00261E0FD
:1002100081E00E94630184EB90E00E94E8030E9469
:10022000AC0220E040E060E080E00E94E00260E09C
:1002300080E00E94630188EB9BE00E948C03182FF2
:10024000D2CF0E94BF028F3A9B402CF080E00E94E8
:1002500049030E947A0380E090E0CC5BDF4F0FB649
:10026000F894DEBF0FBECDBFDF91CF911F910895EF
:100270008091C00087FFFCCF8091C60008958091D7
:10028000C00087FF03C08091C600F9CF0895F8949D
:1002900090936501809364011092630178940895AE
:1002A0000E944701809163018823E1F30895882328
:1002B00011F05E9808955E9A0895882311F05D9874
:1002C00008955D9A0895CF93DF931F92CDB7DEB75F
:1002D00069830E9457016981862F0F90DF91CF912A
:1002E0000C945D011F920F920FB60F9211242F9361
:1002F0003F938F939F938091640190916501892B27
:1003000049F0809164019091650101979093650196
:1003100080936401209164013091650181E0232B79
:1003200009F080E08093630180914501882329F0E2
:10033000809145018150809345018091400188233F
:1003400029F08091400181508093400180915F01AC
:100350009091600101969093600180935F0180917C
:100360005F0190916001883E934098F080915F0119
:1003700090916001885E93409093600180935F014B
:100380008091610190916201019690936201809346
:1003900061019F918F913F912F910F900FBE0F9010
:1003A0001F901895F89480E184B984B18F6084B966
:1003B0008FEC85B917B88FEF88B986EE8AB98DE7CB
:1003C0008BB9109280008CE08093810087E490E0EC
:1003D000909389008093880082E080936F0083E18E
:1003E00090E09093C5008093C40088E18093C100A1
:1003F00086E08093C200789408951D9908951D9910
:100400000CC05F9884EF91E00E9450015F9A84E6EF
:1004100090E00E9450015F98F2CF8CEA9DE00C942E
:1004200050019091C00095FFFCCF8093C6000895C5
:100430001F93CF93DF9380914501811123C00E94C8
:100440003F0185E90E94110285E00E94110287E0C8
:100450000E94110281E10E94110282E10E941102B8
:1004600084E00E94110284E20E941102C6E4D1E0FD
:100470001C2F1E5E0E94380189931C13FBCF84E65B
:1004800080934501DF91CF911F9108950E9418023A
:1004900090914601937081E009F480E008951F93E4
:1004A000CF93DF9380914001811152C00E943F01A0
:1004B00085E90E94110282E00E94110283E10E94FC
:1004C000110284E10E941102C1E4D1E01C2F1C5FE3
:1004D0000E94380189931C13FBCF8091410190E069
:1004E000982F882720914201822B9C01205E314B5E
:1004F00021343C4950F420915D0130915E01820F1E
:10050000931F90935E0180935D018091430190E081
:10051000982F882720914401822B9C01205E314B2B
:1005200021343C4950F420915B0130915C01820FF1
:10053000931F90935C0180935B018091580190918F
:1005400059010196909359018093580110924001EE
:10055000DF91CF911F910895F89410924001789403
:100560000E944F0210925E0110925D0110925C0198
:1005700010925B01109259011092580108950E9447
:100580004F0280915D0190915E010895CF93DF93BA
:10059000C0E085E90E94110282E00E94110289E216
:1005A0000E9411028AE20E941102D4E00E943801E6
:1005B000C82BD150D9F7C111ECCFDF91CF9108955D
:1005C000FF920F931F93CF93DF931F92CDB7DEB7A8
:1005D000182F411102C000E001C002E0211102C049
:1005E000F12C02C088E0F82E8BE869830E9411028A
:1005F0008F2D802B0E941102812F0E941102698190
:10060000862F0F90DF91CF911F910F91FF900C9447
:100610001102CF92DF92EF92FF920F931F93CF932D
:10062000DF9300D000D0CDB7DEB7182FF62E8CE8C0
:100630002B833C8349835A830E941102812F0E949D
:1006400011028F2D0E9411024981E42E2B81022F6D
:100650003C81132FC42E5A81D52E8C2D8E198F15C7
:1006600058F4F60181916F010E941102F801819105
:100670008F010E941102F1CF0F900F900F900F90F9
:10068000DF91CF911F910F91FF90EF90DF90CF906E
:100690000895CF93C82F8F7080935A018DE80E94E0
:1006A00011028C2F0E94110280E0CF9108951F93B8
:1006B000CF93DF9300D01F92CDB7DEB7182F89E814
:1006C0006B837A8399830E9411029981892F0E94FA
:1006D0001102812F0E9411027A81872F0E9411023C
:1006E0006B81862F0F900F900F90DF91CF911F910C
:1006F0000C94110260E070E880E090E00C945703E5
:1007000060E070E888E39FEF0E9457038AEF90E073
:100710000E9450010C947A03CF93DF93EC010E9466
:10072000AC0260E070E888EC90E00E9457030E9401
:100730004F0280915D0190915E018C179D0744F4FA
:100740000E944602882399F30E94800380E003C040
:100750000E947A0381E0DF91CF9108951F93CF9398
:10076000DF931F92CDB7DEB7182F8DE999830E94D2
:1007700011029981892F0E941102812F0E9411027A
:100780000E947A030F90DF91CF911F910C94C602C3
:100790000F931F93CF93DF9300D000D0CDB7DEB778
:1007A0008A016B837C8389839A830E94AC026B816C
:1007B0007C8189819A810E945703C8010F900F9014
:1007C0000F900F90DF91CF911F910F910C94AE037A
:1007D000AC0197FF03C06FEF7FEF02C061E070E0F4
:1007E00088EC90E00C94C803CF93C82F81E80E9456
:1007F00011028091C00080648093C0008C2F0E9401
:1008000011028091C00086FFFCCFF8948C2F90E0FD
:100810008C30910560F5FC01EC5CFF4F0C945C049E
:1008200089E090E020C083E190E01DC08DE190E080
:100830001AC087E290E017C08BE390E014C08FE409
:1008400090E011C087E790E00EC08FEE90E00BC003
:100850008FED91E008C08FEB93E005C08FE797E044
:1008600002C08FEF9EE09093C5008093C4007894FF
:1008700086E990E0CF910C9450010E94D2018BB197
:1008800080668BB90E94FD0180E80E94110289E018
:100890000E94F40382E80E94110283E80E94110280
:1008A0000E947A0320E040E06FEF81E00E94E002C6
:1008B00060E080E00C946301EE0FFF1F0590F4915F
:0808C000E02D0994F894FFCF2C
:1008C8003C3C424244444240403F3F3E3E3C464717
:1008D80010101010101020101010101010201010F0
:1008E8003621232323213636362123232321361C80
:1008F80010101010101010201010101010101010E0
:00000001FF
