:100000000C9440000C945D000C945D000C945D0019
:100010000C945D000C945D000C945D000C945D00EC
:100020000C945D000C945D000C945D000C947B01BD
:100030000C945D000C945D000C945D000C945D00CC
:100040000C945D000C945D000C945D000C945D00BC
:100050000C945D000C945D000C945D000C945D00AC
:100060000C945D000C945D003A04370434043104B0
:100070002E042B042804250422041F041C04190444
:1000800011241FBECFEFD4E0DEBFCDBF11E0A0E052
:10009000B1E0EAEDF8E002C005900D92A034B1079E
:1000A000D9F721E0A0E4B1E001C01D92A636B20765
:1000B000E1F70E945F000C946B040C9400001F9306
:1000C000CF93DF93CDB7DEB7C454D1090FB6F89400
:1000D000DEBF0FBECDBF0E9446040E94B50280E184
:1000E000E0E0F1E0DE01D19601900D928A95E1F712
:1000F00080E1E0E1F1E0DE01919601900D928A95B8
:10010000E1F79E012F5D3F4FAE014F5C5F4F60E115
:1001100080E00E94120383E424968FAF249789E342
:1001200025968FAF259710E122961FAF2297239631
:100130001FAF23979E012F5B3F4FAE014D5B5F4F7B
:1001400062E081E00E941203E0E2F1E0DE015196FC
:10015000812F01900D928A95E1F7E0E3F1E0DE0155
:10016000119601900D921A95E1F79E012F5F3F4F76
:10017000AE014F5E5F4F60E182E00E94120320E01B
:1001800040E060E08FEF0E94E90288EB9BE00E9474
:100190009503811115C081E00E94520321E041E0E6
:1001A0006FEF8FEF0E94E90283EA9FEF0E94F10355
:1001B0000E94B50220E040E060E08FEF0E94E9027B
:1001C00088EB9BE00E949503182F0E94C802111132
:1001D00040C0843F914044F582E00E94520321E0F8
:1001E00041E06FEF80E00E94E90261E081E00E945F
:1001F0006C0184EB90E00E94F1030E94B50220E0C4
:1002000040E060E080E00E94E90260E080E00E945F
:100210006C019E012F5B3F4FAE014D5B5F4F62E073
:1002200081E00E94120315C081E00E94520321E088
:1002300041E06FEF8FEF0E94E90283EA9FEF0E9497
:10024000F1030E94B50220E040E060E08FEF0E94E1
:10025000E9020E94C802883893410CF496CF80E0EE
:100260000E9452030E94830380E090E0CC5BDF4F4A
:100270000FB6F894DEBF0FBECDBFDF91CF911F91B7
:1002800008958091C00087FFFCCF8091C60008953B
:100290008091C00087FF03C08091C600F9CF089508
:1002A000F8949093650180936401109263017894AF
:1002B00008950E945001809163018823E1F308951D
:1002C000882311F05E9808955E9A0895882311F0AE
:1002D0005D9808955D9A0895CF93DF931F92CDB7EF
:1002E000DEB769830E9460016981862F0F90DF91DC
:1002F000CF910C9466011F920F920FB60F921124AA
:100300002F933F938F939F93809164019091650108
:10031000892B49F080916401909165010197909338
:10032000650180936401209164013091650181E051
:10033000232B09F080E0809363018091450188239D
:1003400029F08091450181508093450180914001C1
:10035000882329F080914001815080934001809151
:100360005F019091600101969093600180935F011D
:1003700080915F0190916001883E934098F0809158
:100380005F0190916001885E93409093600180933B
:100390005F018091610190916201019690936201E9
:1003A000809361019F918F913F912F910F900FBE8C
:1003B0000F901F901895F89480E184B984B18F60F4
:1003C00084B98FEC85B917B88FEF88B986EE8AB9F2
:1003D0008DE78BB9109280008CE08093810087E4D8
:1003E00090E0909389008093880082E080936F0072
:1003F00083E190E09093C5008093C40088E18093EE
:10040000C10086E08093C200789408951D990895F4
:100410001D990CC05F9884EF91E00E9459015F9A8A
:1004200084E690E00E9459015F98F2CF8CEA9DE04B
:100430000C9459019091C00095FFFCCF8093C600A9
:1004400008951F93CF93DF9380914501811123C0BD
:100450000E94480185E90E941A0285E00E941A0262
:1004600087E00E941A0281E10E941A0282E10E9442
:100470001A0284E00E941A0284E20E941A02C6E470
:10048000D1E01C2F1E5E0E94410189931C13FBCFFB
:1004900084E680934501DF91CF911F9108950E94DA
:1004A000210290914601937081E009F480E0089563
:1004B0001F93CF93DF9380914001811152C00E941E
:1004C000480185E90E941A0282E00E941A0283E133
:1004D0000E941A0284E10E941A02C1E4D1E01C2F9A
:1004E0001C5F0E94410189931C13FBCF8091410145
:1004F00090E0982F882720914201822B9C01205E5A
:10050000314B21343C4950F420915D0130915E0122
:10051000820F931F90935E0180935D018091430150
:1005200090E0982F882720914401822B9C01205E27
:10053000314B21343C4950F420915B0130915C01F6
:10054000820F931F90935C0180935B01809158010F
:1005500090915901019690935901809358011092FE
:100560004001DF91CF911F910895F89410924001BE
:1005700078940E94580210925E0110925D011092D0
:100580005C0110925B01109259011092580108957C
:100590000E94580280915D0190915E010895CF9371
:1005A000DF93C0E085E90E941A0282E00E941A02ED
:1005B00089E20E941A028AE20E941A02D4E00E9492
:1005C0004101C82BD150D9F7C111ECCFDF91CF91A8
:1005D0000895FF920F931F93CF93DF931F92CDB790
:1005E000DEB7182F411102C000E001C002E0211166
:1005F00002C0F12C02C088E0F82E8BE869830E94CB
:100600001A028F2D802B0E941A02812F0E941A023B
:100610006981862F0F90DF91CF911F910F91FF90ED
:100620000C941A02CF92DF92EF92FF920F931F93D6
:10063000CF93DF9300D000D0CDB7DEB7182FF62EC2
:100640008CE82B833C8349835A830E941A02812FB2
:100650000E941A028F2D0E941A024981E42E2B81DA
:10066000022F3C81132FC42E5A81D52E8C2D8E192A
:100670008F1558F4F60181916F010E941A02F8015A
:1006800081918F010E941A02F1CF0F900F900F906D
:100690000F90DF91CF911F910F91FF90EF90DF901E
:1006A000CF900895CF93C82F8F7080935A018DE813
:1006B0000E941A028C2F0E941A0280E0CF910895A6
:1006C0001F93CF93DF9300D01F92CDB7DEB7182FC3
:1006D00089E86B837A8399830E941A029981892F12
:1006E0000E941A02812F0E941A027A81872F0E948B
:1006F0001A026B81862F0F900F900F90DF91CF9190
:100700001F910C941A0260E070E880E090E00C9475
:10071000600360E070E888E39FEF0E9460038AEF67
:1007200090E00E9459010C948303CF93DF93EC0176
:100730000E94B50260E070E888EC90E00E946003DF
:100740000E94580280915D0190915E018C179D0777
:1007500044F40E944F02882399F30E94890380E0A9
:1007600003C00E94830381E0DF91CF9108951F931E
:10077000CF93DF931F92CDB7DEB7182F8DE9998302
:100780000E941A029981892F0E941A02812F0E94C9
:100790001A020E9483030F90DF91CF911F910C9456
:1007A000CF020F931F93CF93DF9300D000D0CDB72C
:1007B000DEB78A016B837C8389839A830E94B502AA
:1007C0006B817C8189819A810E946003C8010F90AE
:1007D0000F900F900F90DF91CF911F910F910C947C
:1007E000B703AC0197FF03C06FEF7FEF02C061E07A
:1007F00070E088EC90E00C94D103CF93C82F81E88F
:100800000E941A028091C00080648093C0008C2FE7
:100810000E941A028091C00086FFFCCFF8948C2FB2
:1008200090E08C30910560F5FC01EC5CFF4F0C947E
:10083000650489E090E020C083E190E01DC08DE177
:1008400090E01AC087E290E017C08BE390E014C0FC
:100850008FE490E011C087E790E00EC08FEE90E04B
:100860000BC08FED91E008C08FEB93E005C08FE7E0
:1008700097E002C08FEF9EE09093C5008093C40084
:10088000789486E990E0CF910C9459010E94DB01A5
:100890008BB180668BB90E94060280E80E941A0222
:1008A00089E00E94FD0382E80E941A0283E80E9408
:1008B0001A020E94830320E040E06FEF81E00E9473
:1008C000E90260E080E00C946C01EE0FFF1F0590E0
:0A08D000F491E02D0994F894FFCF95
:1008DA003C3C424244444240403F3F3E3E3C464705
:1008EA0010101010101020101010101010201010DE
:1008FA003621232323213636362123232321361C6E
:10090A0010101010101010201010101010101010CD
:00000001FF
